{
  "_format": "hh-sol-artifact-1",
  "contractName": "TalentChain",
  "sourceName": "contracts/TalentChain.sol",
  "abi": [
    {
      "inputs": [],
      "stateMutability": "nonpayable",
      "type": "constructor"
    },
    {
      "anonymous": false,
      "inputs": [
        {
          "indexed": false,
          "internalType": "uint256",
          "name": "competitionId",
          "type": "uint256"
        },
        {
          "indexed": false,
          "internalType": "string",
          "name": "name",
          "type": "string"
        },
        {
          "indexed": false,
          "internalType": "string",
          "name": "description",
          "type": "string"
        },
        {
          "indexed": false,
          "internalType": "string",
          "name": "photoUrl",
          "type": "string"
        },
        {
          "indexed": false,
          "internalType": "uint256",
          "name": "entryFee",
          "type": "uint256"
        },
        {
          "indexed": false,
          "internalType": "uint256",
          "name": "endTime",
          "type": "uint256"
        }
      ],
      "name": "CompetitionCreated",
      "type": "event"
    },
    {
      "anonymous": false,
      "inputs": [
        {
          "indexed": false,
          "internalType": "uint256",
          "name": "competitionId",
          "type": "uint256"
        },
        {
          "indexed": false,
          "internalType": "address",
          "name": "voter",
          "type": "address"
        },
        {
          "indexed": false,
          "internalType": "address",
          "name": "candidate",
          "type": "address"
        }
      ],
      "name": "VoteCast",
      "type": "event"
    },
    {
      "inputs": [],
      "name": "competitionCount",
      "outputs": [
        {
          "internalType": "uint256",
          "name": "",
          "type": "uint256"
        }
      ],
      "stateMutability": "view",
      "type": "function"
    },
    {
      "inputs": [
        {
          "internalType": "uint256",
          "name": "",
          "type": "uint256"
        }
      ],
      "name": "competitions",
      "outputs": [
        {
          "internalType": "string",
          "name": "name",
          "type": "string"
        },
        {
          "internalType": "string",
          "name": "description",
          "type": "string"
        },
        {
          "internalType": "string",
          "name": "photoUrl",
          "type": "string"
        },
        {
          "internalType": "uint256",
          "name": "entryFee",
          "type": "uint256"
        },
        {
          "internalType": "uint256",
          "name": "totalPool",
          "type": "uint256"
        },
        {
          "internalType": "uint256",
          "name": "startTime",
          "type": "uint256"
        },
        {
          "internalType": "uint256",
          "name": "endTime",
          "type": "uint256"
        }
      ],
      "stateMutability": "view",
      "type": "function"
    },
    {
      "inputs": [
        {
          "internalType": "string",
          "name": "_name",
          "type": "string"
        },
        {
          "internalType": "string",
          "name": "_description",
          "type": "string"
        },
        {
          "internalType": "string",
          "name": "_photoUrl",
          "type": "string"
        }
      ],
      "name": "createCompetition",
      "outputs": [],
      "stateMutability": "nonpayable",
      "type": "function"
    },
    {
      "inputs": [
        {
          "internalType": "uint256",
          "name": "competitionId",
          "type": "uint256"
        },
        {
          "internalType": "string",
          "name": "fileUrl",
          "type": "string"
        },
        {
          "internalType": "string",
          "name": "description",
          "type": "string"
        }
      ],
      "name": "enterCompetition",
      "outputs": [],
      "stateMutability": "payable",
      "type": "function"
    },
    {
      "inputs": [],
      "name": "getAllCompetitions",
      "outputs": [
        {
          "components": [
            {
              "internalType": "uint256",
              "name": "id",
              "type": "uint256"
            },
            {
              "internalType": "string",
              "name": "name",
              "type": "string"
            },
            {
              "internalType": "string",
              "name": "description",
              "type": "string"
            },
            {
              "internalType": "string",
              "name": "photoUrl",
              "type": "string"
            },
            {
              "internalType": "uint256",
              "name": "entryFee",
              "type": "uint256"
            },
            {
              "internalType": "uint256",
              "name": "totalPool",
              "type": "uint256"
            },
            {
              "internalType": "uint256",
              "name": "startTime",
              "type": "uint256"
            },
            {
              "internalType": "uint256",
              "name": "endTime",
              "type": "uint256"
            },
            {
              "internalType": "uint256",
              "name": "participantCount",
              "type": "uint256"
            }
          ],
          "internalType": "struct TalentChain.CompetitionDetails[]",
          "name": "",
          "type": "tuple[]"
        }
      ],
      "stateMutability": "view",
      "type": "function"
    },
    {
      "inputs": [
        {
          "internalType": "uint256",
          "name": "competitionId",
          "type": "uint256"
        }
      ],
      "name": "getAllEntries",
      "outputs": [
        {
          "components": [
            {
              "internalType": "address",
              "name": "participant",
              "type": "address"
            },
            {
              "internalType": "string",
              "name": "fileUrl",
              "type": "string"
            },
            {
              "internalType": "string",
              "name": "description",
              "type": "string"
            },
            {
              "internalType": "uint256",
              "name": "timestamp",
              "type": "uint256"
            },
            {
              "internalType": "uint256",
              "name": "voteCount",
              "type": "uint256"
            }
          ],
          "internalType": "struct TalentChain.ParticipantEntryDetails[]",
          "name": "",
          "type": "tuple[]"
        }
      ],
      "stateMutability": "view",
      "type": "function"
    },
    {
      "inputs": [
        {
          "internalType": "uint256",
          "name": "competitionId",
          "type": "uint256"
        }
      ],
      "name": "getCompetitionDetails",
      "outputs": [
        {
          "internalType": "string",
          "name": "name",
          "type": "string"
        },
        {
          "internalType": "string",
          "name": "description",
          "type": "string"
        },
        {
          "internalType": "string",
          "name": "photoUrl",
          "type": "string"
        },
        {
          "internalType": "uint256",
          "name": "entryFee",
          "type": "uint256"
        },
        {
          "internalType": "uint256",
          "name": "totalPool",
          "type": "uint256"
        },
        {
          "internalType": "uint256",
          "name": "startTime",
          "type": "uint256"
        },
        {
          "internalType": "uint256",
          "name": "endTime",
          "type": "uint256"
        },
        {
          "internalType": "uint256",
          "name": "participantCount",
          "type": "uint256"
        }
      ],
      "stateMutability": "view",
      "type": "function"
    },
    {
      "inputs": [],
      "name": "owner",
      "outputs": [
        {
          "internalType": "address",
          "name": "",
          "type": "address"
        }
      ],
      "stateMutability": "view",
      "type": "function"
    },
    {
      "inputs": [
        {
          "internalType": "uint256",
          "name": "competitionId",
          "type": "uint256"
        },
        {
          "internalType": "address",
          "name": "candidate",
          "type": "address"
        }
      ],
      "name": "vote",
      "outputs": [],
      "stateMutability": "nonpayable",
      "type": "function"
    },
    {
      "inputs": [
        {
          "internalType": "uint256",
          "name": "",
          "type": "uint256"
        }
      ],
      "name": "winners",
      "outputs": [
        {
          "internalType": "address",
          "name": "winnerAddress",
          "type": "address"
        },
        {
          "internalType": "uint256",
          "name": "rewardAmount",
          "type": "uint256"
        }
      ],
      "stateMutability": "view",
      "type": "function"
    }
  ],
  "bytecode": "0x60806040526000600455348015601457600080fd5b50600380546001600160a01b0319163317905561182e806100366000396000f3fe6080604052600436106100915760003560e01c80638da5cb5b116100595780638da5cb5b146101645780639f6828d91461019c578063a1681770146101cf578063a2fb1175146101f3578063ad8d6c841461025257600080fd5b806302d947ef146100965780631fe127cd146100b857806325a3d436146100e35780635a6ccea9146101105780636e785d2114610130575b600080fd5b3480156100a257600080fd5b506100b66100b13660046111a0565b610265565b005b3480156100c457600080fd5b506100cd610420565b6040516100da9190611222565b60405180910390f35b3480156100ef57600080fd5b506101036100fe36600461130e565b61071c565b6040516100da9190611327565b34801561011c57600080fd5b506100b661012b366004611475565b61099d565b34801561013c57600080fd5b5061015061014b36600461130e565b610b9c565b6040516100da989796959493929190611509565b34801561017057600080fd5b50600354610184906001600160a01b031681565b6040516001600160a01b0390911681526020016100da565b3480156101a857600080fd5b506101bc6101b736600461130e565b610da7565b6040516100da9796959493929190611570565b3480156101db57600080fd5b506101e560005481565b6040519081526020016100da565b3480156101ff57600080fd5b5061023361020e36600461130e565b600260205260009081526040902080546001909101546001600160a01b039091169082565b604080516001600160a01b0390931683526020830191909152016100da565b6100b66102603660046115d0565b610f79565b600082815260016020526040902060068101544211156102c45760405162461bcd60e51b815260206004820152601560248201527410dbdb5c195d1a5d1a5bdb881a185cc8195b991959605a1b60448201526064015b60405180910390fd5b6001600160a01b038216600090815260088201602052604090205460ff1661032e5760405162461bcd60e51b815260206004820152601760248201527f4e6f7420612076616c6964207061727469636970616e7400000000000000000060448201526064016102bb565b336000908152600a8201602052604090205460ff16156103895760405162461bcd60e51b8152602060048201526016602482015275165bdd481a185d9948185b1c9958591e481d9bdd195960521b60448201526064016102bb565b6001600160a01b0382166000908152600b8201602052604081208054916103af83611619565b9091555050336000818152600a83016020908152604091829020805460ff191660011790558151868152908101929092526001600160a01b038416908201527fcfff1651bcea794952a516ce970ab17518a85210bd939aaeaac670a8d3e65ec79060600160405180910390a1505050565b60606000805467ffffffffffffffff81111561043e5761043e6113d0565b6040519080825280602002602001820160405280156104be57816020015b6104ab6040518061012001604052806000815260200160608152602001606081526020016060815260200160008152602001600081526020016000815260200160008152602001600081525090565b81526020019060019003908161045c5790505b50905060005b6000548110156107165760006104db826001611632565b905060006001600083815260200190815260200160002090506040518061012001604052808381526020018260000180546105159061164b565b80601f01602080910402602001604051908101604052809291908181526020018280546105419061164b565b801561058e5780601f106105635761010080835404028352916020019161058e565b820191906000526020600020905b81548152906001019060200180831161057157829003601f168201915b505050505081526020018260010180546105a79061164b565b80601f01602080910402602001604051908101604052809291908181526020018280546105d39061164b565b80156106205780601f106105f557610100808354040283529160200191610620565b820191906000526020600020905b81548152906001019060200180831161060357829003601f168201915b505050505081526020018260020180546106399061164b565b80601f01602080910402602001604051908101604052809291908181526020018280546106659061164b565b80156106b25780601f10610687576101008083540402835291602001916106b2565b820191906000526020600020905b81548152906001019060200180831161069557829003601f168201915b505050505081526020018260030154815260200182600401548152602001826005015481526020018260060154815260200182600701805490508152508484815181106107015761070161167f565b602090810291909101015250506001016104c4565b50919050565b600081815260016020526040812060078101546060928167ffffffffffffffff81111561074b5761074b6113d0565b6040519080825280602002602001820160405280156107b757816020015b6107a46040518060a0016040528060006001600160a01b03168152602001606081526020016060815260200160008152602001600081525090565b8152602001906001900390816107695790505b50905060005b828110156109945760008460070182815481106107dc576107dc61167f565b60009182526020808320909101546001600160a01b0316808352600988018252604092839020835160a081019094528184528054919450929182019083906108239061164b565b80601f016020809104026020016040519081016040528092919081815260200182805461084f9061164b565b801561089c5780601f106108715761010080835404028352916020019161089c565b820191906000526020600020905b81548152906001019060200180831161087f57829003601f168201915b505050505081526020018260010180546108b59061164b565b80601f01602080910402602001604051908101604052809291908181526020018280546108e19061164b565b801561092e5780601f106109035761010080835404028352916020019161092e565b820191906000526020600020905b81548152906001019060200180831161091157829003601f168201915b505050505081526020018260020154815260200187600b016000856001600160a01b03166001600160a01b031681526020019081526020016000205481525084848151811061097f5761097f61167f565b602090810291909101015250506001016107bd565b50949350505050565b6003546001600160a01b03163314610a035760405162461bcd60e51b815260206004820152602360248201527f4f776e6572204f6e6c792043616e20437265617465204120436f6d706574697460448201526234b7b760e91b60648201526084016102bb565b6000835111610a4d5760405162461bcd60e51b8152602060048201526016602482015275456d70747920436f6d7065746974696f6e204e616d6560501b60448201526064016102bb565b6000825111610a925760405162461bcd60e51b815260206004820152601160248201527022b6b83a3c902232b9b1b934b83a34b7b760791b60448201526064016102bb565b6000815111610ad55760405162461bcd60e51b815260206004820152600f60248201526e115b5c1d1e48141a1bdd1bc8155493608a1b60448201526064016102bb565b600080549080610ae483611619565b90915550506000805480825260016020526040909120429080610b0787826116e4565b5060018101610b1686826116e4565b5060028101610b2585826116e4565b5060048054600383015560009082015560058101829055610b4962093a8083611632565b600682018190556004546040517fb7adb16ebdde3cb86de047421a19287844013554726d232603a508bb2d02bc9f92610b8c9287928b928b928b929091906117a3565b60405180910390a1505050505050565b6060806060600080600080600080600160008b8152602001908152602001600020905080600001816001018260020183600301548460040154856005015486600601548760070180549050878054610bf39061164b565b80601f0160208091040260200160405190810160405280929190818152602001828054610c1f9061164b565b8015610c6c5780601f10610c4157610100808354040283529160200191610c6c565b820191906000526020600020905b815481529060010190602001808311610c4f57829003601f168201915b50505050509750868054610c7f9061164b565b80601f0160208091040260200160405190810160405280929190818152602001828054610cab9061164b565b8015610cf85780601f10610ccd57610100808354040283529160200191610cf8565b820191906000526020600020905b815481529060010190602001808311610cdb57829003601f168201915b50505050509650858054610d0b9061164b565b80601f0160208091040260200160405190810160405280929190818152602001828054610d379061164b565b8015610d845780601f10610d5957610100808354040283529160200191610d84565b820191906000526020600020905b815481529060010190602001808311610d6757829003601f168201915b505050505095509850985098509850985098509850985050919395975091939597565b600160205260009081526040902080548190610dc29061164b565b80601f0160208091040260200160405190810160405280929190818152602001828054610dee9061164b565b8015610e3b5780601f10610e1057610100808354040283529160200191610e3b565b820191906000526020600020905b815481529060010190602001808311610e1e57829003601f168201915b505050505090806001018054610e509061164b565b80601f0160208091040260200160405190810160405280929190818152602001828054610e7c9061164b565b8015610ec95780601f10610e9e57610100808354040283529160200191610ec9565b820191906000526020600020905b815481529060010190602001808311610eac57829003601f168201915b505050505090806002018054610ede9061164b565b80601f0160208091040260200160405190810160405280929190818152602001828054610f0a9061164b565b8015610f575780601f10610f2c57610100808354040283529160200191610f57565b820191906000526020600020905b815481529060010190602001808311610f3a57829003601f168201915b5050505050908060030154908060040154908060050154908060060154905087565b60008381526001602052604090206006810154421115610fd35760405162461bcd60e51b815260206004820152601560248201527410dbdb5c195d1a5d1a5bdb881a185cc8195b991959605a1b60448201526064016102bb565b806003015434146110265760405162461bcd60e51b815260206004820152601a60248201527f496e636f727265637420656e7472792066656520616d6f756e7400000000000060448201526064016102bb565b33600090815260088201602052604090205460ff161561109a5760405162461bcd60e51b815260206004820152602960248201527f596f75206861766520616c726561647920656e7465726564207468697320636f60448201526836b832ba34ba34b7b760b91b60648201526084016102bb565b60008351116110eb5760405162461bcd60e51b815260206004820152601860248201527f46696c652055524c2063616e6e6f7420626520656d707479000000000000000060448201526064016102bb565b3360008181526008830160209081526040808320805460ff19166001908117909155600786018054918201815584528284200180546001600160a01b03191685179055805160608101825287815280830187905242818301529383526009850190915290208151819061115e90826116e4565b506020820151600182019061117390826116e4565b5060408201518160020155905050348160040160008282546111959190611632565b909155505050505050565b600080604083850312156111b357600080fd5b8235915060208301356001600160a01b03811681146111d157600080fd5b809150509250929050565b6000815180845260005b81811015611202576020818501810151868301820152016111e6565b506000602082860101526020601f19601f83011685010191505092915050565b6000602082016020835280845180835260408501915060408160051b86010192506020860160005b8281101561130257603f198786030184528151805186526020810151610120602088015261127c6101208801826111dc565b90506040820151878203604089015261129582826111dc565b915050606082015187820360608901526112af82826111dc565b9150506080820151608088015260a082015160a088015260c082015160c088015260e082015160e0880152610100820151610100880152809650505060208201915060208401935060018101905061124a565b50929695505050505050565b60006020828403121561132057600080fd5b5035919050565b6000602082016020835280845180835260408501915060408160051b86010192506020860160005b8281101561130257868503603f19018452815180516001600160a01b0316865260208082015160a09188018290529061138a908801826111dc565b9050604082015187820360408901526113a382826111dc565b606084810151908a015260809384015193909801929092525050602093840193919091019060010161134f565b634e487b7160e01b600052604160045260246000fd5b600082601f8301126113f757600080fd5b813567ffffffffffffffff811115611411576114116113d0565b604051601f8201601f19908116603f0116810167ffffffffffffffff81118282101715611440576114406113d0565b60405281815283820160200185101561145857600080fd5b816020850160208301376000918101602001919091529392505050565b60008060006060848603121561148a57600080fd5b833567ffffffffffffffff8111156114a157600080fd5b6114ad868287016113e6565b935050602084013567ffffffffffffffff8111156114ca57600080fd5b6114d6868287016113e6565b925050604084013567ffffffffffffffff8111156114f357600080fd5b6114ff868287016113e6565b9150509250925092565b6101008152600061151e61010083018b6111dc565b8281036020840152611530818b6111dc565b90508281036040840152611544818a6111dc565b60608401989098525050608081019490945260a084019290925260c083015260e0909101529392505050565b60e08152600061158360e083018a6111dc565b8281036020840152611595818a6111dc565b905082810360408401526115a981896111dc565b9150508560608301528460808301528360a08301528260c083015298975050505050505050565b6000806000606084860312156115e557600080fd5b83359250602084013567ffffffffffffffff8111156114ca57600080fd5b634e487b7160e01b600052601160045260246000fd5b60006001820161162b5761162b611603565b5060010190565b8082018082111561164557611645611603565b92915050565b600181811c9082168061165f57607f821691505b60208210810361071657634e487b7160e01b600052602260045260246000fd5b634e487b7160e01b600052603260045260246000fd5b601f8211156116df57806000526020600020601f840160051c810160208510156116bc5750805b601f840160051c820191505b818110156116dc57600081556001016116c8565b50505b505050565b815167ffffffffffffffff8111156116fe576116fe6113d0565b6117128161170c845461164b565b84611695565b6020601f821160018114611746576000831561172e5750848201515b600019600385901b1c1916600184901b1784556116dc565b600084815260208120601f198516915b828110156117765787850151825560209485019460019092019101611756565b50848210156117945786840151600019600387901b60f8161c191681555b50505050600190811b01905550565b86815260c0602082015260006117bc60c08301886111dc565b82810360408401526117ce81886111dc565b905082810360608401526117e281876111dc565b6080840195909552505060a0015294935050505056fea26469706673582212209c5823f3fecd95da2c6c5fcfe6f76dfb6c8040ec1f7051f86fcaccf0a79ed68864736f6c634300081c0033",
  "linkReferences": {},
  "deployedLinkReferences": {}
}